:100000000C942A000C9407010C943C000C943C00C6
:100010000C943C000C943C000C943C000C943C0070
:100020000C943C000C943C000C943C000C943C0060
:100030000C943C000C943C000C943C000C943C0050
:100040000C943C000C943C000C943C000C943C0040
:100050000C943C0011241FBECFE5D8E0DEBFCDBF1D
:1000600020E0A0E6B0E001C01D92A436B207E1F79F
:100070000E943E010C9441030C94000062E084E471
:100080000E942E0160E081E40E94320161E081E47F
:100090000E94320162E081E40E94320160E082E469
:1000A0000E94320161E082E40E94320162E082E457
:1000B0000E9432010E949B020E949F020E94A302A2
:1000C0000E94A70208950F9380916000882319F081
:1000D000813041F19AC060E081E40E9436010E94C3
:1000E000AB0284E190E00E94B30260E081E40E94F0
:1000F0003A0141E061E485E00E94D20262E081E4DD
:100100000E9436010E94AB0284E190E00E94B3029B
:1001100062E081E40E943A0141E061E485E00E94EE
:10012000D20273C00E949D0241E650E062E081E489
:100130000E943702809161008130B9F460E082E46E
:100140000E94360162E081E40E9436010E94AB0207
:1001500084E190E00E94B30260E082E40E943A01F0
:1001600062E081E40E943A0127C062E082E40E94DA
:1001700036010E94AB0284E190E00E94B30262E08B
:1001800082E40E943A0160E081E40E943A0101E0C9
:1001900021E042E461E485E00E94FF0260E082E445
:1001A0000E94360162E081E40E9436010E94AB02A7
:1001B00084E190E00E94B30262E081E40E943A018F
:1001C00001E021E042E461E485E00E94FF0260E09A
:1001D00082E40E943A0162E082E40E94360160E01B
:1001E00081E40E9436010E94AB0284E190E00E940B
:1001F000B30262E082E40E943A0160E081E40E947E
:100200003A010E949B02109260000F9108951F9284
:100210000F920FB60F9211242F933F934F935F933A
:100220006F937F938F939F93AF93BF93EF93FF93BE
:1002300081E0809360000E946300FF91EF91BF9185
:10024000AF919F918F917F916F915F914F913F916E
:100250002F910F900FBE0F901F90189540E00E94B5
:100260004301089541E00E944301089541E00E9446
:10027000BD01089540E00E94BD0108950E943E0026
:100280000E946300FDCF823431F118F4813439F0DB
:1002900008958334E1F1843409F454C00895411180
:1002A0000CC02AB381E090E002C0880F991F6A95C4
:1002B000E2F7809582238ABB0895413009F05CC043
:1002C0002AB381E090E002C0880F991F6A95E2F797
:1002D000822B8ABB089541110CC027B381E090E0C6
:1002E00002C0880F991F6A95E2F78095822387BB29
:1002F0000895413009F040C027B381E090E002C08A
:10030000880F991F6A95E2F7822B87BB08954111E8
:100310000CC024B381E090E002C0880F991F6A9559
:10032000E2F78095822384BB0895413029F524B3F8
:1003300081E090E002C0880F991F6A95E2F7822B56
:1003400084BB089541110CC021B381E090E002C04C
:10035000880F991F6A95E2F78095822381BB0895E3
:10036000413051F421B381E090E002C0880F991F21
:100370006A95E2F7822B81BB0895823431F118F43B
:10038000813439F008958334E1F1843409F454C0A0
:10039000089541110CC02BB381E090E002C0880F9A
:1003A000991F6A95E2F7809582238BBB08954130AF
:1003B00009F05CC02BB381E090E002C0880F991F68
:1003C0006A95E2F7822B8BBB089541110CC028B3CC
:1003D00081E090E002C0880F991F6A95E2F780954E
:1003E000822388BB0895413009F040C028B381E0E2
:1003F00090E002C0880F991F6A95E2F7822B88BBB4
:10040000089541110CC025B381E090E002C0880F2F
:10041000991F6A95E2F78095822385BB0895413044
:1004200029F525B381E090E002C0880F991F6A95F5
:10043000E2F7822B85BB089541110CC022B381E005
:1004400090E002C0880F991F6A95E2F78095822399
:1004500082BB0895413051F422B381E090E002C0A4
:10046000880F991F6A95E2F7822B82BB0895823428
:1004700001F118F4813439F00895833481F1843422
:1004800009F443C0089579B381E090E09C01062E01
:1004900002C0220F331F0A94E2F7872F90E08223D5
:1004A000932302C0959587956A95E2F7FA018083B8
:1004B000089576B381E090E09C01062E02C0220FE1
:1004C000331F0A94E2F7872F90E08223932302C020
:1004D000959587956A95E2F7FA018083089573B33D
:1004E00081E090E09C01062E02C0220F331F0A9487
:1004F000E2F7872F90E08223932302C0959587959A
:100500006A95E2F7FA018083089570B381E090E084
:100510009C01062E02C0220F331F0A94E2F7872F98
:1005200090E08223932302C0959587956A95E2F720
:10053000FA018083089578940895F894089585B712
:10054000836085BF08958BB780648BBF089513BE09
:100550008CE082BF0895109263001092620083B70E
:10056000856083BF0895AC0110C008B600FEFDCFC2
:1005700098B7916098BF20916200309163002F5F1F
:100580003F4F3093630020936200209162003091CE
:1005900063002417350748F310926300109262003D
:1005A00013BE08950F931F93CF93DF93082F162F39
:1005B000D42FC0E019C010926300109262006D2F1A
:1005C000812F0E9436010E94AB0282E090E00E94DF
:1005D000B3026D2F812F0E943A010E94AB0282E08C
:1005E00090E00E94B302CF5FC01728F3109263001F
:1005F00010926200DF91CF911F910F910895EF92B9
:10060000FF920F931F93CF93DF93E82E162FD42FD3
:10061000F22EC0E021C010926300109262006F2D94
:10062000812F0E943601602F8D2F0E9436010E947B
:10063000AB0282E090E00E94B3026F2D812F0E94F6
:100640003A01602F8D2F0E943A010E94AB0282E096
:1006500090E00E94B302CF5FCE15E8F210926300E3
:10066000109262006F2D812F0E943A01602F8D2F12
:100670000E943A01DF91CF911F910F91FF90EF906F
:060680000895F894FFCF7D
:00000001FF
